:100000000C944C000C9469000C9469000C946900E9
:100010000C9469000C9469000C9469000C946900BC
:100020000C9469000C9469000C9469000C945C0AAF
:100030000C9469000C9469000C9469000C9469009C
:100040000C9469000C9469000C9469000C9469008C
:100050000C946900FF083A093A093A093A093A0941
:100060003A09F5083A093A093A093A093A090909EF
:100070003A093A093A093A093A093A0913091D09AC
:1000800027093A093A093A093A093A093A093A096B
:100090003A093A093A09310911241FBECFE5D8E0DF
:1000A000DEBFCDBF13E0A0E6B0E0EAE1F7E102C0B9
:1000B00005900D92A830B107D9F723E0A8E0B3E08E
:1000C00001C01D92AE3BB207E1F70E9441050C94BE
:1000D0008B0B0C94000087B1806487B987B18F7750
:1000E00087B987B18F7D87B986B18F7D86B986B193
:1000F000816086B986B1826086B986B1846086B92E
:1001000086B1806886B908958032B0F461157105B2
:1001100099F097B1907E97B997B1892B87B986B13D
:10012000806486B9349BFECF86B1806186B984B184
:1001300095B1FB01918380830895843008F072C0EB
:10014000683010F4413011F041116CC0813001F180
:1001500030F08230B1F1833009F44CC00895413061
:1001600059F42AB381E090E002C0880F991F6A9584
:10017000E2F7822B8ABB08952AB381E090E002C0A7
:10018000880F991F6A95E2F7809582238ABB0895AC
:10019000413059F427B381E090E002C0880F991FE5
:1001A0006A95E2F7822B87BB089527B381E090E040
:1001B00002C0880F991F6A95E2F78095822387BB5A
:1001C0000895413059F424B381E090E002C0880FD3
:1001D000991F6A95E2F7822B84BB089524B381E0CE
:1001E00090E002C0880F991F6A95E2F780958223FC
:1001F00084BB0895413059F421B381E090E002C0FE
:10020000880F991F6A95E2F7822B81BB089521B36D
:1002100081E090E002C0880F991F6A95E2F780950F
:10022000822381BB0895843008F072C0683010F4D6
:10023000413011F041116CC0813001F130F0823059
:10024000B1F1833009F44CC00895413059F42BB317
:1002500081E090E002C0880F991F6A95E2F7822B37
:100260008BBB08952BB381E090E002C0880F991FEB
:100270006A95E2F7809582238BBB0895413059F44B
:1002800028B381E090E002C0880F991F6A95E2F7D9
:10029000822B88BB089528B381E090E002C0880FCC
:1002A000991F6A95E2F78095822388BB08954130B3
:1002B00059F425B381E090E002C0880F991F6A9538
:1002C000E2F7822B85BB089525B381E090E002C060
:1002D000880F991F6A95E2F78095822385BB089560
:1002E000413059F422B381E090E002C0880F991F99
:1002F0006A95E2F7822B82BB089522B381E090E0F9
:1003000002C0880F991F6A95E2F78095822382BB0D
:100310000895843078F4813041F028F0823039F04B
:10032000833039F008956BBB089568BB089565BBB1
:10033000089562BB0895843078F4813041F028F04C
:10034000823039F0833039F008956ABB089567BB75
:10035000089564BB089561BB0895843060F58130D1
:1003600079F028F08230A9F08330E1F026C089B31B
:1003700090E002C0959587956A95E2F7817008959F
:1003800086B390E002C0959587956A95E2F78170F3
:10039000089583B390E002C0959587956A95E2F73A
:1003A0008170089580B390E002C0959587956A9515
:1003B000E2F78170089580E0089580E00895843028
:1003C00098F5813089F028F08230C9F0833011F13E
:1003D00008952BB381E090E002C0880F991F6A95C1
:1003E000E2F7822B8BBB089528B381E090E002C036
:1003F000880F991F6A95E2F7822B88BB089525B371
:1004000081E090E002C0880F991F6A95E2F7822B85
:1004100085BB089522B381E090E002C0880F991F48
:100420006A95E2F7822B82BB0895843080F4813094
:1004300041F028F0823039F0833039F00AC089B3B6
:10044000089586B3089583B3089580B3089580E036
:10045000089580E008951F93CF93DF93D82FC62F80
:10046000192F10650E94A702812F0E94CA028D2FAA
:100470000E94F4028C2F0E94F4020E94C3028FE1BA
:100480009EE40197F1F700C00000DF91CF911F912A
:1004900008950F931F93CF93DF93D82F8B01C92F0C
:1004A000C0650E94A7028C2F0E94CA028D2F0E9455
:1004B000F4020E94B5028C2F0E94DF02C8010E9444
:1004C000FF020E94C3028FE19EE40197F1F700C092
:1004D0000000DF91CF911F910F910895EF92FF924D
:1004E0000F931F93CF937C018B01C0E008C08C2F2A
:1004F00090E0B701680F791F0E944902CF5FC430B6
:10050000B0F3C0E009C08C2F90E0B801680F791FEC
:1005100004960E944902CF5FC430A8F3CF911F9187
:100520000F91FF90EF9008958FB780688FBF089567
:1005300081B18E7F81B981B18D7F81B98CE080B925
:1005400086B7806486BF86B7846086BF089586B705
:10055000806286BF86B7806886BF06B607FEFDCF7D
:1005600081B1887F8830E1F7089586B7806286BFC1
:1005700086B7806886BF06B607FEFDCF81B1887F4B
:100580008031E1F7089586B7806186BF86B78068BD
:1005900086BF0895882394F0880F83B983B18E7F36
:1005A00083B986B78F7D86BF86B7806886BF06B65B
:1005B00007FEFDCF81B1887F8831E1F70895882358
:1005C00094F0880F83B983B1816083B986B78F7D3A
:1005D00086BF86B7806886BF06B607FEFDCF81B1AD
:1005E000887F8034E1F7089583B984E886BF06B632
:1005F00007FEFDCF81B1887F8832E1F70895FC01C5
:10060000892B59F084E886BF06B607FEFDCF91B16D
:10061000987F9835E1F783B1808308959F92AF92D8
:10062000BF92CF92DF92EF92FF920F931F93CF93DF
:10063000DF93CDB7DEB760970FB6F894DEBF0FBE7D
:10064000CDBF5C0180E1E0E6F0E0DE0111960190B3
:100650000D928A95E1F78FEFF5018083912C00E0F0
:1006600039C0C02ED12CF601EC58FF4F40E060811C
:1006700081E00E94130110E01FC0E12EF12CF70170
:10068000E059FF4F608182E00E94AD01811113C0EB
:10069000F701EE0FFF1FEE0FFF1F81E090E08C0FC0
:1006A0009D1FE80FF91FEC0DFD1D8081F501808372
:1006B0009924939403C01F5F1430F8F2F601EC58AC
:1006C000FF4F41E0608181E00E941301F1E09F163D
:1006D00019F00F5F043028F260960FB6F894DEBF71
:1006E0000FBECDBFDF91CF911F910F91FF90EF9083
:1006F000DF90CF90BF90AF909F90089541E064E06D
:1007000081E00E949D0041E065E081E00E949D0043
:1007100041E066E081E00E949D0041E067E081E009
:100720000E949D0040E060E082E00E949D0040E069
:1007300061E082E00E949D0040E065E082E00E946E
:100740009D0040E066E082E00E949D0060E082E063
:100750000E94DF0161E082E00E94DF0165E082E04B
:100760000E94DF0166E082E00E94DF010895CF93DE
:10077000AC0190E001C09F5FFA01E90FF11D80819B
:100780008111F9CF9150C92FC69520E010C0622F7A
:1007900070E0DA01A60FB71F8C91E92FF0E0E61B9D
:1007A000F70BE40FF51F30813C9380832F5FC21756
:1007B00070F7CF9108950F931F93CF93DC01CB0176
:1007C0008A010097A105B105B1F480E3FA018083A5
:1007D00011821DC0BC01CD012AE030E040E050E0B4
:1007E0000E94540BDA01C901F801EC0FF11D605DA4
:1007F0006083CF5F01C0C0E00097A105B10551F74C
:10080000F801EC0FF11D1082C8010E94B703CF91CF
:100810001F910F91089541E063E081E00E94130170
:100820008AE08A95F1F700C040E063E081E00E9431
:1008300013010895CF93DF93C82F80E00E94150223
:100840006C2F607F8F70682B80E00E94890141E0EF
:1008500061E081E00E94130140E062E081E00E94DB
:1008600013010E940B048FE39FE10197F1F700C091
:10087000000090E1C99FE001112480E00E94150270
:100880008F706C2F682B80E00E94890141E061E04D
:1008900081E00E94130140E062E081E00E941301C8
:1008A0000E940B048FE39FE10197F1F700C0000065
:1008B000DF91CF910895CF92DF92EF92FF92CF9385
:1008C000DF93EC01C12CD12C760107C00E941A04E1
:1008D0008FEFC81AD80AE80AF80AFE01EC0DFD1DD0
:1008E00080818111F3CFDF91CF91FF90EF90DF9066
:1008F000CF900895CF93DF93CDB7DEB764970FB64F
:10090000F894DEBF0FBECDBFAE014F5F5F4F0E94B8
:10091000DB03CE0101960E945B0464960FB6F89447
:10092000DEBF0FBECDBFDF91CF910895CF93DF9390
:10093000C82F80E00E9415026C2F607F8F70682B9B
:1009400080E00E94890140E061E081E00E941301A3
:1009500040E062E081E00E9413010E940B048FE3FB
:100960009FE10197F1F700C0000090E1C99FE0010D
:10097000112480E00E9415028F706C2F682B80E09C
:100980000E94890140E061E081E00E94130140E0A3
:1009900062E081E00E9413010E940B048FE39FE15B
:1009A0000197F1F700C00000DF91CF91089560EF4B
:1009B00080E00E949B016EE081E00E949B0140E08C
:1009C00063E081E00E9413012FEF89EF90E0215056
:1009D00080409040E1F700C0000082E00E94960451
:1009E00088E20E9496048CE00E94960481E00E94B6
:1009F000960480E80E94960488E790E00E945B04D9
:100A000080EC0E9496048EE790E00E945B040895BB
:100A10009C0103C08F5F8093080380910803F90154
:100A2000E80FF11D90819111F5CF0895FF920F937A
:100A30001F93CF93DF938C01EB010E940805F82EE2
:100A4000CE010E940805F81213C030E007C0F8017B
:100A5000E80FF91F808128130DC03F5F832F90E0BE
:100A6000FE01E80FF91F20812111F1CF81E003C0C1
:100A700080E001C080E0DF91CF911F910F91FF9046
:100A800008950E94D7040E94F00A0E94CA0A0E9498
:100A900094020E9498020E94040B0E946B0040E0A6
:100AA00061E080E00E949D0040E060E081E00E9403
:100AB0009D0040E062E083E00E949D0040E066E02F
:100AC00083E00E949D0040E060E083E00E949D0082
:100AD00041E061E083E00E949D0041E067E082E048
:100AE0000E949D0041E062E082E00E949D0041E0A2
:100AF00063E083E00E949D0041E063E080E00E94AB
:100B00009D0041E063E082E00E949D0041E064E0DE
:100B100082E00E949D0041E062E080E00E949D0032
:100B200041E067E083E00E949D000E947E0385E82B
:100B30000E94960484E890E00E94210B86E990E0F0
:100B40000E94210B8BE193E00E94130B80911B0309
:100B50008A3209F063C289EA90E00E94210B8091F9
:100B60001903843099F18BE193E00E94130BE0911B
:100B70001A03E430B0F480911B03813391F0F0E06C
:100B8000EB56FC4F80830E941A0480911A038F5FFA
:100B900080931A038430D1F48BEB90E00E94210BF8
:100BA00015C080911903E82FF0E0EF57FC4F9091AA
:100BB0001B0390838B530E94960480911B030E9419
:100BC0001A04809119038F5F809319038091190390
:100BD000843029F66DEC70E085E993E00E941605FB
:100BE000813009F0BCCF62ED70E081E893E00E94B3
:100BF0001605813009F0B3CF87ED90E00E94210BFC
:100C000088EE90E00E94210B8BE193E00E94130B91
:100C100080911B038A3509F0B0C181E080931003F5
:100C200062E083E00E94AD01813009F0D6C06DEC36
:100C300070E085E993E00E941605813009F0CDC08F
:100C400062ED70E081E893E00E941605813009F0C2
:100C5000C4C01092170310921803109216030E943A
:100C6000960480E80E94960483E091E00E945B0471
:100C700082E191E00E94210B83EF91E00E94ED0A56
:100C80002FEF87EA91E6215080409040E1F700C0C5
:100C9000000084E690E00E94ED0A84E291E00E9468
:100CA000210B80911003813009F07DC086E391E033
:100CB0000E94210B81E491E00E94210B8DE491E0E0
:100CC0000E94210B88E591E00E94210B84E691E0CF
:100CD0000E94210B8FE691E00E94210B8BE791E0AF
:100CE0000E94210B88E891E00E94210B8BE193E0A8
:100CF0000E94130B80911B038F3451F441E062E09A
:100D000082E00E94130181E991E00E94210BEECF65
:100D1000863451F440E062E082E00E9413018DE9E4
:100D200091E00E94210BE2CF8E3451F441E067E064
:100D300082E00E9413018AEA91E00E94210BD6CF43
:100D4000833451F440E067E082E00E94130186EBB7
:100D500091E00E94210BCACF883451F441E063E056
:100D600083E00E94130183EC91E00E94210BBECF2F
:100D70008C3451F440E063E083E00E9413018FEC77
:100D800091E00E94210BB2CF843451F441E067E03E
:100D900083E00E9413018CED91E00E94210BA6CF0D
:100DA000833509F0A3CF2FEF83ED90E321508040EE
:100DB0009040E1F700C000008AEE91E00E94210B14
:100DC00081E00E94960480E80E9496048DEF91E0F5
:100DD0000E945B0481E080930D0366E083E00E9443
:100DE000AD01813009F044C00E94960480E80E9461
:100DF000960488E790E00E945B0480EC0E949604D1
:100E00008EE790E00E945B0485E80E94960489E0EA
:100E100092E00E94210B8BE192E00E94210B109244
:100E200017031092180310920D0340E063E083E073
:100E30000E94130140E067E082E00E94130140E05D
:100E400062E082E00E94130140E063E082E00E94E1
:100E5000130140E064E082E00E94130140E062E0A0
:100E600080E00E94130140E067E083E00E941301EC
:100E700080910D03813009F076C069E073E00E9433
:100E800084002091090330910A03A2E3B0E00E949C
:100E90007C0BDC01CB01072E7AE0B695A7959795E0
:100EA00087957A95D1F7702D90930C0380930B035F
:100EB00060E081E00E94AD01811155C066E083E0F1
:100EC0000E94AD0181114FC080EC0E9496042FEF6B
:100ED00089E698E1215080409040E1F700C0000091
:100EE00089E292E00E94210B80910B0390910C0308
:100EF0000E94350B8BE491E00E94210B60910B0363
:100F000070910C0380E090E00E947A0480910B03C2
:100F100090910C034997A0F480E492E00E94210B89
:100F200040E063E082E00E94130140E064E082E080
:100F30000E94130140E062E080E00E94130113C0B0
:100F400087E592E00E94210B41E063E082E00E948D
:100F5000130140E064E082E00E94130141E062E09E
:100F600080E00E94130160E081E00E94AD018130C9
:100F700009F056CE80930F0351C080911B03883532
:100F800009F044C081E00E94960480E80E94960423
:100F900088E790E00E945B0480EC0E9496048EE754
:100FA00090E00E945B0485E80E9496048FE692E040
:100FB0000E94210B8BE193E00E94130B809115039B
:100FC000843098F460911B03683579F090E00E94BA
:100FD0002B02809115038F5F80931503843091F469
:100FE00082E892E00E94210B0DC08091140390E0F2
:100FF00060911B0304960E942B02809114038F5F63
:1010000080931403809114038430A1F6809114031B
:10101000843009F0A4CD81E080930E0380911B03FE
:10102000833281F48091130381110CC085E992E031
:101030000E94210B81E080930E03809113038F5F48
:101040008093130380E893E00E940E038091800355
:101050008F3F79F191E090930E03109210039091DD
:101060001703943078F40E941A0480911703E82F34
:10107000F0E0E85AFC4F9091800390838F5F80935B
:10108000170317C080911803843098F48B530E9483
:101090009604809180030E941A0480911803E82F1F
:1010A000F0E0EC5BFC4F9091800390838F5F809326
:1010B000180362E083E00E94AD01813009F02CC189
:1010C000E0911703F0E0E85AFC4F1082E09118031A
:1010D000F0E0EC5BFC4F10826CE673E08CE193E097
:1010E0000E946E0210922003109270036CE173E074
:1010F00088E593E00E941605813009F0E4C06CE6B3
:1011000073E084E493E00E941605813009F0DBC0AF
:101110001092170310921803109216030E9496045F
:1011200080E80E94960483E091E00E945B0482E1E3
:1011300091E00E94210B83EF91E00E94ED0A2FEFD6
:1011400087EA91E6215080409040E1F700C000001E
:1011500084E690E00E94ED0A84E291E00E94210B77
:1011600080910E03813009F093C00E94960480E8BC
:101170000E9496048BEA92E00E945B0485E80E943C
:10118000960481EB92E00E945B048BE80E94960437
:1011900087EB92E00E945B0480EC0E9496048DEB4A
:1011A00092E00E945B0485EC0E94960483EC92E03E
:1011B0000E945B048BEC0E94960489EC92E00E94F2
:1011C0005B0480E893E00E940E03809180038F3FD0
:1011D00009F454C090E0FC01B397E232F10508F045
:1011E00049C0E65DFF4F0C94760B41E062E082E07F
:1011F0000E94130181E991E00E94210B3BC041E074
:1012000067E082E00E9413018AEA91E00E94210BCC
:1012100031C041E063E083E00E94130183EC91E080
:101220000E94210B27C040E062E082E00E9413018F
:101230008DE991E00E94210B1DC040E067E082E053
:101240000E94130186EB91E00E94210B13C040E045
:1012500063E083E00E9413018FEC91E00E94210B78
:1012600009C041E067E083E00E9413018CED91E04A
:101270000E94210B80918003833451F02FEF88E589
:1012800096E0215080409040E1F700C0000099CFE7
:101290002FEF83ED90E3215080409040E1F700C0B4
:1012A00000008AEE91E00E94210B81E00E949604EA
:1012B00080E80E9496048DEF91E00E945B0481E03B
:1012C00080930D0329C0809116038F5F80931603CE
:1012D000833010F581E00E94960480E80E94960415
:1012E0002FEF80E792E0215080409040E1F700C06E
:1012F00000008FEC92E00E945B0480EC0E94960458
:101300008CED92E00E945B0486EE92E00E94210B3D
:10131000109217031092180366E083E00E94AD015B
:10132000813009F044C00E94960480E80E9496042F
:1013300088E790E00E945B0480EC0E9496048EE7B0
:1013400090E00E945B0485E80E94960489E092E0A8
:101350000E94210B8BE192E00E94210B1092170357
:101360001092180310920D0340E063E083E00E94A6
:10137000130140E067E082E00E94130140E062E078
:1013800082E00E94130140E063E082E00E941301CA
:1013900040E064E082E00E94130140E062E080E00F
:1013A0000E94130140E067E083E00E9413018091F6
:1013B0000D03813009F076C069E073E00E9484007B
:1013C0002091090330910A03A2E3B0E00E947C0B54
:1013D000DC01CB01072E7AE0B695A7959795879506
:1013E0007A95D1F7702D90930C0380930B0360E0F6
:1013F00081E00E94AD01811155C066E083E00E944A
:10140000AD0181114FC080EC0E9496042FEF89E658
:1014100098E1215080409040E1F700C0000089E24F
:1014200092E00E94210B80910B0390910C030E948B
:10143000350B8BE491E00E94210B60910B037091BE
:101440000C0380E090E00E947A0480910B0390915D
:101450000C034997A0F480E492E00E94210B40E045
:1014600063E082E00E94130140E064E082E00E94B9
:10147000130140E062E080E00E94130113C087E5A1
:1014800092E00E94210B41E063E082E00E941301A0
:1014900040E064E082E00E94130141E062E080E00D
:1014A0000E9413012FEF88E596E021508040904084
:1014B000E1F700C000004ACB1F920F920FB60F92C7
:1014C00011242F933F934F935F936F937F938F9349
:1014D0009F93AF93BF93EF93FF9380911603833055
:1014E00009F047C0809111039091120301969093E7
:1014F00012038093110381E00E94960480E80E9409
:10150000960441E063E080E00E94130180911103A2
:10151000909112038737914061F512BE1092120329
:1015200010921103109217031092180310921603D1
:1015300040E063E080E00E94130181E00E94960495
:1015400080E80E94960488E790E00E945B0480ECAB
:101550000E9496048EE790E00E945B0485E80E945A
:1015600096048DEF92E00E94210B8CE192E00E94A4
:10157000210BFF91EF91BF91AF919F918F917F913F
:101580006F915F914F913F912F910F900FBE0F90F0
:101590001F90189581B3806281BB8FB58E7F8FBD00
:1015A0008FB582608FBD8EB588608EBD8EB580612F
:1015B0008EBD8FB580688FBD8FB58F7B8FBD87E85F
:1015C00093E197BD86BD8EB581608EBD8EB582607C
:1015D0008EBD8EB58B7F8EBD08959BBD8ABD08954F
:1015E00083B78F7B83BF83B7877F83BF12BE89B7E3
:1015F000816089BF83B7816083BF83B7826083BF07
:1016000083B78B7F83BF08958AB18B7F8AB986E8C1
:1016100080BD87E689B98AB188608AB908958CB996
:101620005D9BFECF0895FC01892B51F09AB190612A
:101630009AB95F9BFECF8CB180838AB18F7E8AB9C5
:1016400008950F931F93CF938C01C0E003C00E94B5
:101650000F0BCF5FF801EC0FF11D80818111F7CFE7
:101660001082CF911F910F910895CF93DF93CDB743
:10167000DEB764970FB6F894DEBF0FBECDBFBC01D6
:1016800080E090E0AE014F5F5F4F0E94DB03CE0130
:1016900001960E94210B64960FB6F894DEBF0FBE30
:1016A000CDBFDF91CF910895A1E21A2EAA1BBB1BDB
:1016B000FD010DC0AA1FBB1FEE1FFF1FA217B3071E
:1016C000E407F50720F0A21BB30BE40BF50B661F34
:1016D000771F881F991F1A9469F7609570958095F8
:1016E00090959B01AC01BD01CF010895EE0FFF1F46
:1016F0000590F491E02D0994A29FB001B39FC00121
:10170000A39F700D811D1124911DB29F700D811D2D
:0A1710001124911D0895F894FFCFF5
:10171A003132334134353642373839432A3023445B
:10172A000001050604050607557365723A00506103
:10173A0073733A002A2D4C6F67696E2041732041FA
:10174A00646D696E0A00232D5369676E20496E2005
:10175A00417320557365720A00456E7465722041A3
:10176A00646D696E204E616D650A00456E7465721E
:10177A002041646D696E20506173730A00414243CF
:10178A0044003132333400582D5369676E20557046
:10179A002055736572730A005A2D526573756D650B
:1017AA002050726F6A656374204E6F726D616C6C43
:1017BA00790A0057656C636F6D6520486F6D653AED
:1017CA0029000A54686520446F6F72204F70656E55
:1017DA0065640A000A54686520446F6F7220436C7E
:1017EA006F7365640A004F2D4C454430204F4E0AF2
:1017FA0000462D4C454430204F46460A004E2D4C9B
:10180A00454431204F4E0A00432D4C454431204F68
:10181A0046460A00482D4C454432204F4E0A004C99
:10182A002D4C454432204F46460A00442D44494D2A
:10183A004D4552204F4E0A00532D427265616B0A84
:10184A00004C454430204953204F4E0A004C454431
:10185A0030204953204F46460A004C45443120491E
:10186A0053204F4E0A004C454431204953204F46DD
:10187A00460A004C454432204953204F4E0A004C38
:10188A00454432204953204F46460A0044494D4DAB
:10189A004552204953204F4E0A0054656D7020531B
:1018AA00656E736F7220426567696E0A0054656DD2
:1018BA00702053656E736F72000A54656D70205301
:1018CA00656E736F722053746F70000A4C6F67698C
:1018DA006E20416761696E0A000A54656D70205373
:1018EA00656E736F722072656164696E67730A0050
:1018FA0041697220436F6E646974696F6E696E67BD
:10190A002053746F700A0041697220436F6E6469D4
:10191A0074696F6E696E672053746172740A00533A
:10192A0069676E2055702055736572204E616D652A
:10193A000A005369676E20557020557365722050EE
:10194A006173730A005369676E20496E2055736983
:10195A006E67204B65796261640A002A2D4C304F0C
:10196A0000232D4C314F00302D4C324F00372D4C77
:10197A00304600382D4C314600392D4C324600573E
:10198A00726F6E67206163636573730054727920A6
:10199A00416761696E000A57726F6E6720616363FF
:1019AA0065737320746F20686F6D650A000A546945
:0819BA006D65204F75740A00F1
:00000001FF
