:100000000C942A000C9447000C9447000C94470071
:100010000C9447000C9447000C9447000C94470044
:100020000C9447000C9447000C9447000C94F7057F
:100030000C9447000C9447000C9447000C94470024
:100040000C9447000C9447000C9447000C94470014
:100050000C94470011241FBECFE5D8E0DEBFCDBF12
:1000600011E0A0E6B0E0E0E0FEE002C005900D92F5
:10007000A83AB107D9F722E0A8EAB1E001C01D9281
:10008000A530B207E1F70E944F040C94FE060C94D1
:10009000000087B1806487B987B18F7787B987B14E
:1000A0008F7D87B986B18F7D86B986B1816086B92B
:1000B00086B1826086B986B1846086B986B180686F
:1000C00086B908958032B0F46115710599F097B141
:1000D000907E97B997B1892B87B986B1806486B92C
:1000E000349BFECF86B1806186B984B195B1FB01A6
:1000F000918380830895843008F072C0683010F4D2
:10010000413011F041116CC0813001F130F082308A
:10011000B1F1833009F44CC00895413059F42AB349
:1001200081E090E002C0880F991F6A95E2F7822B68
:100130008ABB08952AB381E090E002C0880F991F1E
:100140006A95E2F7809582238ABB0895413059F47D
:1001500027B381E090E002C0880F991F6A95E2F70B
:10016000822B87BB089527B381E090E002C0880FFF
:10017000991F6A95E2F78095822387BB08954130E5
:1001800059F424B381E090E002C0880F991F6A956A
:10019000E2F7822B84BB089524B381E090E002C093
:1001A000880F991F6A95E2F78095822384BB089592
:1001B000413059F421B381E090E002C0880F991FCB
:1001C0006A95E2F7822B81BB089521B381E090E02C
:1001D00002C0880F991F6A95E2F78095822381BB40
:1001E0000895843008F072C0683010F4413011F086
:1001F00041116CC0813001F130F08230B1F18330B7
:1002000009F44CC00895413059F42BB381E090E0DB
:1002100002C0880F991F6A95E2F7822B8BBB089565
:100220002BB381E090E002C0880F991F6A95E2F736
:10023000809582238BBB0895413059F428B381E027
:1002400090E002C0880F991F6A95E2F7822B88BB65
:10025000089528B381E090E002C0880F991F6A9545
:10026000E2F78095822388BB0895413059F425B385
:1002700081E090E002C0880F991F6A95E2F7822B17
:1002800085BB089525B381E090E002C0880F991FD7
:100290006A95E2F78095822385BB0895413059F431
:1002A00022B381E090E002C0880F991F6A95E2F7BF
:1002B000822B82BB089522B381E090E002C0880FB8
:1002C000991F6A95E2F78095822382BB0895843056
:1002D00078F4813041F028F0823039F0833039F001
:1002E00008956BBB089568BB089565BB089562BB14
:1002F0000895843078F4813041F028F0823039F06C
:10030000833039F008956ABB089567BB089564BBD4
:10031000089561BB0895843060F5813079F028F04C
:100320008230A9F08330E1F026C089B390E002C0AA
:10033000959587956A95E2F78170089586B390E068
:1003400002C0959587956A95E2F78170089583B309
:1003500090E002C0959587956A95E2F781700895BF
:1003600080B390E002C0959587956A95E2F7817019
:10037000089580E0089580E00895843098F58130F4
:1003800089F028F08230C9F0833011F108952BB341
:1003900081E090E002C0880F991F6A95E2F7822BF6
:1003A0008BBB089528B381E090E002C0880F991FAD
:1003B0006A95E2F7822B88BB089525B381E090E02F
:1003C00002C0880F991F6A95E2F7822B85BB0895BA
:1003D00022B381E090E002C0880F991F6A95E2F78E
:1003E000822B82BB0895843080F4813041F028F064
:1003F000823039F0833039F00AC089B3089586B36A
:10040000089583B3089580B3089580E0089580E04F
:1004100008958FB780688FBF089581B18E7F81B9AD
:1004200081B18D7F81B98CE080B986B7806486BF49
:1004300086B7846086BF08959F92AF92BF92CF9295
:10044000DF92EF92FF920F931F93CF93DF93CDB77D
:10045000DEB760970FB6F894DEBF0FBECDBF5C016C
:1004600080E1E0E6F0E0DE01119601900D928A95C0
:10047000E1F78FEFF5018083912C00E039C0C02EA9
:10048000D12CF601EC58FF4F40E0608181E00E94E2
:10049000F10010E01FC0E12EF12CF701E059FF4FF1
:1004A000608182E00E948B01811113C0F701EE0F81
:1004B000FF1FEE0FFF1F81E090E08C0F9D1FE80FE4
:1004C000F91FEC0DFD1D8081F50180839924939423
:1004D00003C01F5F1430F8F2F601EC58FF4F41E003
:1004E000608181E00E94F100F1E09F1619F00F5F3A
:1004F000043028F260960FB6F894DEBF0FBECDBF71
:10050000DF91CF911F910F91FF90EF90DF90CF90EF
:10051000BF90AF909F90089541E064E081E00E9419
:100520007B0041E065E081E00E947B0041E066E005
:1005300081E00E947B0041E067E081E00E947B0057
:1005400040E063E082E00E947B0040E064E082E003
:100550000E947B0040E065E082E00E947B0040E07A
:1005600066E082E00E947B0063E082E00E94BD01C1
:1005700064E082E00E94BD0165E082E00E94BD016E
:1005800066E082E00E94BD010895CF93AC0190E047
:1005900001C09F5FFA01E90FF11D80818111F9CF40
:1005A0009150C92FC69520E010C0622F70E0DA018B
:1005B000A60FB71F8C91E92FF0E0E61BF70BE40FB5
:1005C000F51F30813C9380832F5FC21770F7CF9166
:1005D00008950F931F93CF93DC01CB018A010097FD
:1005E000A105B105B1F480E3FA01808311821DC039
:1005F000BC01CD012AE030E040E050E00E94CD0691
:10060000DA01C901F801EC0FF11D605D6083CF5F75
:1006100001C0C0E00097A105B10551F7F801EC0F4A
:10062000F11D1082C8010E94C502CF911F910F9148
:10063000089541E063E081E00E94F1008AE08A953C
:10064000F1F700C040E063E081E00E94F10008950E
:10065000CF93DF93C82F80E00E94F3016C2F607F5F
:100660008F70682B80E00E94670141E061E081E0CB
:100670000E94F10040E062E081E00E94F1000E94EF
:1006800019038FE39FE10197F1F700C0000090E1AB
:10069000C99FE001112480E00E94F3018F706C2F4C
:1006A000682B80E00E94670141E061E081E00E94E8
:1006B000F10040E062E081E00E94F1000E94190335
:1006C0008FE39FE10197F1F700C00000DF91CF9128
:1006D0000895CF92DF92EF92FF92CF93DF93EC01D8
:1006E000C12CD12C760107C00E9428038FEFC81AB5
:1006F000D80AE80AF80AFE01EC0DFD1D808181117F
:10070000F3CFDF91CF91FF90EF90DF90CF900895DE
:10071000CF93DF93CDB7DEB764970FB6F894DEBF03
:100720000FBECDBFAE014F5F5F4F0E94E902CE0109
:1007300001960E94690364960FB6F894DEBF0FBE5F
:10074000CDBFDF91CF910895CF93DF93C82F80E085
:100750000E94F3016C2F607F8F70682B80E00E94F5
:10076000670140E061E081E00E94F10040E062E06A
:1007700081E00E94F1000E9419038FE39FE101973D
:10078000F1F700C0000090E1C99FE001112480E072
:100790000E94F3018F706C2F682B80E00E9467012C
:1007A00040E061E081E00E94F10040E062E081E031
:1007B0000E94F1000E9419038FE39FE10197F1F776
:1007C00000C00000DF91CF91089560EF80E00E94AB
:1007D00079016EE081E00E94790140E063E081E010
:1007E0000E94F1002FEF89EF90E02150804090406F
:1007F000E1F700C0000082E00E94A40388E20E94AA
:10080000A4038CE00E94A40381E00E94A40380E87A
:100810000E94A40388E790E00E94690380EC0E9494
:10082000A4038EE790E00E94690308959C0103C031
:100830008F5F8093A8018091A801F901E80FF11D55
:1008400090819111F5CF0895FF920F931F93CF934D
:10085000DF938C01EB010E941604F82ECE010E945A
:100860001604F81213C030E007C0F801E80FF91FB2
:10087000808128130DC03F5F832F90E0FE01E80FB9
:10088000F91F20812111F1CF81E003C080E001C078
:1008900080E0DF91CF911F910F91FF9008950E940A
:1008A000E5030E945F060E9409020E940D020E9459
:1008B00073060E94490040E061E080E00E947B00F6
:1008C00040E060E081E00E947B0040E062E083E085
:1008D0000E947B0040E066E083E00E947B0040E0F5
:1008E00060E083E00E947B0041E061E083E00E94E1
:1008F0007B0041E067E082E00E947B0041E062E033
:1009000082E00E947B000E948C0285E80E94A40382
:1009100084E890E00E948B0681EF91E00E94BB0684
:100920008DED91E00E94BB0681EE90E00E948B0667
:1009300081EF91E00E948B0681EE90E00E948B0691
:100940008DED91E00E948B068CED91E00E941C02DF
:100950008091DC018F3F41F19091B101943078F4A6
:100960000E9428038091B101E82FF0E0E853FE4F88
:100970009091DC0190838F5F8093B10115C08091CD
:10098000B2018B530E94A4038091DC010E942803D2
:100990008091B201E82FF0E0EC54FE4F9091DC0121
:1009A00090838F5F8093B20162E083E00E948B01AD
:1009B000813009F07DC0E091B101F0E0E853FE4FD5
:1009C0001082E091B201F0E0EC54FE4F10826EEA2A
:1009D00070E088EC91E00E942404813041F463EBE4
:1009E00070E084EB91E00E942404813081F068EB98
:1009F00070E081EF91E00E9424048130B9F56DEB45
:100A000070E08DED91E00E942404813079F5109220
:100A1000B1011092B2011092B00181E00E94A403D2
:100A200080E80E94A40382EC90E00E94690381EDBB
:100A300090E00E948B062FEF83ED90E321508040E1
:100A40009040E1F700C0000083EE90E00E948B062A
:100A500081E00E94A40380E80E94A40386EF90E056
:100A60000E94690381E08093AD0122C08091B001B2
:100A70008F5F8093B0018330D8F481E00E94A4039B
:100A800080E80E94A4032FEF80E792E0215080408D
:100A90009040E1F700C0000082E091E00E9469030D
:100AA00082E191E00E948B061092B1011092B20196
:100AB00066E083E00E948B01813031F50E94A4033F
:100AC00080E80E94A40388E790E00E94690380EC1C
:100AD0000E94A4038EE790E00E94690385E80E94CB
:100AE000A40389E291E00E948B068BE391E00E94CF
:100AF0008B061092B1011092B2011092AD0140E04C
:100B000067E082E00E94F1008091AD01813009F040
:100B100064C069EA71E00E9462002091A9013091ED
:100B2000AA01A2E3B0E00E94EF06DC01CB01072E90
:100B30007AE0B695A795979587957A95D1F7702D18
:100B40009093AC018093AB0160E081E00E948B0147
:100B5000811143C066E083E00E948B0181113DC09A
:100B600080EC0E94A4032FEF89E698E12150804099
:100B70009040E1F700C0000089E491E00E948B06FC
:100B80006091AB017091AC0180E090E00E949F0603
:100B900081EE90E00E948B066091AB017091AC01F8
:100BA00080E090E00E9488038091AB019091AC01BD
:100BB000499750F480E691E00E948B0640E067E0A0
:100BC00082E00E94F10009C087E791E00E948B0655
:100BD00041E067E082E00E94F1002FEF88E596E0B7
:100BE000215080409040E1F700C00000ADCE1F9240
:100BF0000F920FB60F9211242F933F934F935F9351
:100C00006F937F938F939F93AF93BF93EF93FF93D4
:100C10008091B001833009F041C08091AE01909184
:100C2000AF0101969093AF018093AE0181E00E94E5
:100C3000A40380E80E94A4038FE891E00E94690366
:100C40008091AE019091AF018737914039F512BE86
:100C50001092AF011092AE011092B1011092B20148
:100C60001092B00181E00E94A40380E80E94A403D6
:100C700088E790E00E94690380EC0E94A4038EE75D
:100C800090E00E94690385E80E94A4038CE991E04A
:100C90000E948B068CE391E00E948B06FF91EF91FE
:100CA000BF91AF919F918F917F916F915F914F9184
:100CB0003F912F910F900FBE0F901F90189583B703
:100CC0008F7B83BF83B7877F83BF12BE89B7816065
:100CD00089BF83B7816083BF83B7826083BF83B7D7
:100CE0008B7F83BF08958AB18B7F8AB986E880BDE8
:100CF00087E689B98AB188608AB98AB180618AB980
:100D000008958CB95D9BFECF08955F9BFECF2CB1FB
:100D1000FC01208308950F931F93CF938C01C0E0B3
:100D200003C00E948106CF5FF801EC0FF11D8081A6
:100D30008111F7CF1082CF911F910F910895CF931A
:100D4000DF93CDB7DEB764970FB6F894DEBF0FBE62
:100D5000CDBFAE014F5F5F4F0E94E902CE01019609
:100D60000E948B0664960FB6F894DEBF0FBECDBF0F
:100D7000DF91CF9108950F931F93CF938C01C0E023
:100D800006C0C8018C0F911D0E948506CF5FC4303C
:100D9000C0F3CF911F910F910895A1E21A2EAA1BC3
:100DA000BB1BFD010DC0AA1FBB1FEE1FFF1FA2171B
:100DB000B307E407F50720F0A21BB30BE40BF50B18
:100DC000661F771F881F991F1A9469F760957095A1
:100DD000809590959B01AC01BD01CF010895A29F24
:100DE000B001B39FC001A39F700D811D1124911DFF
:100DF000B29F700D811D1124911D0895F894FFCFAD
:100E00003132334134353642373839432A3023447E
:100E10000304050604050607557365723A00506120
:100E200073733A000A456E7465722061646D696E71
:100E3000206E616D6520616E642050617373207750
:100E40006974686F75742073706163650A0041424C
:100E500043440031323334006D6F68610031313109
:100E6000310057656C636F6D6520486F6D653A2979
:100E7000000A54686520446F6F72204F70656E657C
:100E8000640A0054656D702053656E736F72204262
:100E90006567696E0A0054656D702053656E736FE7
:100EA00072004D6F74686572204675636B65723AA7
:100EB00029000A57726F6E67206163636573732040
:100EC000746F20686F6D650A000A54656D70205359
:100ED000656E736F722053746F70000A4C6F676990
:100EE0006E20416761696E0A000A54656D70205377
:100EF000656E736F722072656164696E67730A0054
:100F000041697220436F6E646974696F6E696E67C0
:100F10002053746F700A0041697220436F6E6469D8
:100F200074696F6E696E672053746172740A00573A
:100F30006169742033205365633A29000A54696D4E
:080F400065204F75740A0000E2
:00000001FF
